:020000040800F2
:10000000F80400209D01000835110008750F000854
:1000100031110008850200082914000800000000C2
:100020000000000000000000000000003D1100087A
:100030008902000800000000391100084111000881
:10004000B7010008B7010008B7010008B7010008B0
:10005000B7010008B7010008B7010008B7010008A0
:10006000B7010008B7010008B7010008B701000890
:10007000B7010008B7010008B7010008B701000880
:10008000B7010008B7010008B7010008B701000870
:10009000B7010008B7010008B7010008B701000860
:1000A000B7010008B7010008B7010008B701000850
:1000B000B7010008B7010008B7010008B701000840
:1000C000B7010008B7010008B7010008B701000830
:1000D000B7010008B7010008B7010008B701000820
:1000E000B7010008B7010008B7010008B701000810
:1000F000B7010008B7010008B7010008B701000800
:10010000B7010008B7010008B7010008B7010008EF
:10011000B7010008B7010008B7010008B7010008DF
:10012000B7010008B7010008B7010008B7010008CF
:10013000B7010008B7010008B7010008B7010008BF
:10014000B7010008B7010008B7010008B7010008AF
:10015000B7010008B7010008B7010008B70100089F
:10016000B7010008B7010008B7010008B70100088F
:10017000B7010008B7010008B7010008000000003F
:10018000B7010008B7010008DFF80CD000F068F8EC
:10019000004800472D140008F80400200648804756
:1001A00006480047FEE7FEE7FEE7FEE7FEE7FEE75C
:1001B000FEE7FEE7FEE7FEE7F5110008890100080B
:1001C0002DE9F05F0546002092469B46884606468C
:1001D000814640241BE0284641464746224600F01F
:1001E0002FF853465A46C01A914110D3114618466B
:1001F000224600F016F82D1A67EB01084F462246FA
:100200000120002100F00DF817EB00094E41201EDF
:10021000A4F10104DFDC484631462A464346BDE8E6
:10022000F09F202A04DB203A00FA02F100207047F8
:100230009140C2F1200320FA03F319439040704724
:10024000202A04DB203A21FA02F00021704721FA2B
:1002500002F3D040C2F12002914008431946704792
:10026000064C074D06E0E06840F0010394E8070003
:1002700098471034AC42F6D3FFF78AFF7C1400088D
:100280009C140008FEE7000070470000EFF31080A8
:1002900072B600BFFEE700002DE9F04F82B000F11A
:1002A0003E4241F6004502F1FF77C4F20205082202
:1002B0004FEAB726A84208BF0722072E38BF4FEAE9
:1002C000B7224FF0010A002400274FF000080092E7
:1002D00008E000BF023708F10108202F04F10404F0
:1002E00000F0B4800E680AFA08F916EA090FF1D096
:1002F000D1F804A00AF0030BABF10106012E17D8C8
:100300000322866802FA07FECA6826EA0E06BA4089
:10031000324382604268CAF3001522EA090205FAF4
:1003200008F54FEA480C6FEA0E062A4342600BE0DC
:100330000322BA40D643BBF1030FBC4604D1BC46EE
:100340004FF0030B22E000BFC2688D68324005FA0F
:100350000CF52A43BBF1020FC26017D16FF0030204
:1003600002EA5802024404F01C030F25D2F820E0F0
:1003700005FA03FA0D692EEA0A0E05FA03F343EAB9
:100380000E031362D1F804A00AF0030B02680BFA03
:100390000CF332401A431AF4403F4FF0010A026056
:1003A00098D0002243F644030192C4F202031A6873
:1003B00043F6004E42F480421A601A68C4F2010EFD
:1003C00002F480420192019A28F003024FF6084C91
:1003D0007244CFF6FF7C52F80C3004F00C060F2567
:1003E000B540AB43009D05FA06F6334342F80C30A6
:1003F000DEF808204B6842EA090643F60C4CDD02A1
:1004000058BF22EA0906CEF80860C4F2010CDCF8F5
:1004100000209D0242EA090658BF22EA0906CCF8EC
:100420000060DEF804209D0342EA090658BF22EA74
:100430000906CEF80460DEF80020DB0342EA090674
:1004400058BF22EA0906CEF8006043E702B0BDE8D3
:10045000F08F0000002A08BF090481617047000086
:1004600040F2F000C2F200000068704770B5B8B307
:10047000044690F83D0028B9002084F83C0020464E
:1004800000F0B0F8242084F83D002068016821F0D5
:1004900001010160016841F400410160016821F43B
:1004A0000041016000F02AFA48F28041C0F21E01CA
:1004B00040F60013D4F804E088424FF00001C0F287
:1004C0003D0348F2A16C4FF0000238BF0121984271
:1004D000C0F2010C38BF0122E64538BF0A460AB116
:1004E000012070BD4DF68361C4F21B31A0FB0112E7
:1004F0002168950C4B684FF4967623F03F0343EA4E
:100500009243754344F6D3564B60C1F262060B6AC0
:10051000A5FB0656B50923F03F03E64538BF950C09
:100520006A1C1A430A62CA6948F2A0664CF6FF7355
:10053000C0F20106B64522EA03020BD801384FEAA1
:100540004E03B0FBF3F001306FF31F30042898BF67
:1005500004201EE0A368013863B119230EFB03F3E6
:10056000B0FBF3F001306FF31F3078B100F580403D
:1005700008E000BF0EEB4E03B0FBF3F001306FF369
:100580001F3028B100F5004003E000BF012000E06B
:1005900001201043C8610868D4E9072320F0C00097
:1005A000104318430860886848F2FF3204F10C06D3
:1005B00090434CCE18431043A5698860C86820F06A
:1005C000FF0030432843C860086840F0010008601D
:1005D00000202021206484F83D10206384F83E0030
:1005E00070BD0000B0B586B0016845F20040C4F2AD
:1005F0000000814202D006B0B0BD00BF002443F627
:1006000030050194C4F20205296800F5D83041F0A4
:1006100002012960296801F0020101910199C021BC
:1006200001911221CDE902140321049104210591C5
:1006300001A9FFF731FE0094286940F400102861F9
:10064000286900F400100090009806B0B0BD0000CA
:1006500040F2000040F2F001C2F20000C2F20001DC
:1006600000780A68104408607047000080B543F6BF
:100670000040C4F20200016841F4007101600168A9
:1006800041F480610160016841F4807101600320E0
:1006900000F074F80F2000F005F800F027F80020B3
:1006A00080BD000070B540F20006C2F2000640F2C4
:1006B00008013278C2F200014FF47A730968B3FB83
:1006C000F2F20446B1FBF2F1084600F031FB0F2CC8
:1006D0004FF0010508D838B94FF0FF30214600220D
:1006E000002500F01FF87460284670BD82B000201D
:1006F00043F640010190C4F202014A6842F480428C
:100700004A604A6802F480420192019A00900868A7
:1007100040F080500860086800F080500090009819
:1007200002B0704710B54EF60C5CCEF2000CDCF84F
:100730000030C3F3022E8EF00704042C28BF0424DB
:10074000BEF103034FF0FF3E0EFA04F438BF00235E
:10075000A14399400EFA03F39A43114300F00F02AC
:10076000043A624409010C3200F16043B0F1FF3FEA
:10077000C8BF03F56442117010BD00004EF60C5165
:10078000CEF200010A684FF6FF031A4060F30A2216
:1007900042F0806040F0FD70086070472DE9F04144
:1007A000002800F08B8043F60808C4F202080446D3
:1007B000D8F8F8030D4600F00700884207D288F801
:1007C000F853D8F8F80300F00700A84276D1206863
:1007D000810717D5410705D5D8F8001041F4E0513D
:1007E000C8F80010010705D5D8F8001041F46041A1
:1007F000C8F80010D8F80010A26821F0F0011143E9
:10080000C8F80010C0073FD1D8F8F80300F007007F
:10081000A84207D988F8F853D8F8F80300F0070081
:10082000A8424BD12068410707D5D8F80010E268EC
:1008300021F4E0511143C8F80010000708D5D8F89A
:100840000000216920F4604040EAC100C8F80000BF
:1008500000F07CF8D8F8001041F26442C1F30311B3
:10086000C0F60002515C40F2080220FA01F140F2A9
:100870000400C2F200000068C2F200021160FFF73B
:1008800011FF0020BDE8F0816068811E022907D2B7
:1008900058F8081C89015CBF0120BDE8F08111E017
:1008A000012807D158F8081C89035CBF0120BDE866
:1008B000F08107E058F8081C890703D40120BDE83F
:1008C000F08100BFD8F8001021F003010843C8F8F8
:1008D0000000FFF7C5FD064641F28837D8F8000052
:1008E000616800F00C00B0EB810F8DD0FFF7B8FD10
:1008F000801BB842F2D90320BDE8F08140F2080025
:1009000043F60801C2F20000C4F20201006809685F
:1009100041F27442C1F38221C0F60002515CC8402A
:100920007047000040F2080043F60801C2F20000E0
:10093000C4F202010068096841F27442C1F3423115
:10094000C0F60002515CC8407047000010B543F685
:100950000404C4F20204606800F00C0008280BD004
:10096000042819BF42F20040C0F2F40047F64000EC
:10097000C0F27D1010BD00BF2068216823684902C5
:1009800047F64001C0F27D1100F03F02C3F388102A
:100990005CBF42F20041C0F2F401A1FB0001002360
:1009A000FFF70EFC21680222C1F3014102EB410175
:1009B000B0FBF1F010BD00002DE9F04182B000283D
:1009C0006AD00446007843F60006C007C4F2020667
:1009D0000BD0B06800F00C00042840F0A180306813
:1009E000800302D56068002856D0207880071AD589
:1009F000B06810F00C0F09D0B06800F00C000828A7
:100A000040F0A8807068400200F1A4803068800740
:100A100002D5E06801283FD13068216920F0F80054
:100A200040EAC10030602078000739D420784007C0
:100A30004ED4A5695DB3B06800F00C00082840F002
:100A4000BD80012D28D07068E16900F480028A42DF
:100A500022D1216A00F03F028A421DD147F6C071BF
:100A6000626A0140B1EB821F16D1A26A0023CFF661
:100A7000FF7303EBC23200F440316FF30F02914277
:100A80000AD1E16A00F07060B0EB016F04D1002080
:100A900002B0BDE8F08100BF012002B0BDE8F081E6
:100AA0006069002840F20000C4F2472076D001219E
:100AB000C0F8801EFFF7D4FC054600BF706F8007AA
:100AC000B4D4FFF7CDFC401B0228F7D9DDE000BF0E
:100AD000306C10F080580AD100200190306C40F04A
:100AE00080503064306C00F080500190019847F2E3
:100AF0000007C4F200073868C00541D4386840F4E4
:100B000080703860FFF7ACFC054600BF3868C00550
:100B100036D4FFF7A5FC401B0228F7D9B5E000BF8B
:100B2000B06800F00C00082803D1706840023FF55F
:100B300056AF6068B0F5803F07D0B0F5A02F40F009
:100B40008D80306840F480203060306840F4803020
:100B500030608DE0E068002852D00020C4F24720C9
:100B600001210160FFF77CFC054600BF306880076B
:100B70003FF552AFFFF774FC401B0228F6D984E022
:100B8000A068012805D005284ED1306F40F0040040
:100B90003067306F40F0010030674FE00021C0F84F
:100BA000801EFFF75DFC0546706F80077FF53EAF46
:100BB000FFF756FC401B0228F6D966E00027C4F276
:100BC000472700203866FFF74BFC022D05460BD166
:100BD000306880015ED5FFF743FC401B02284FF0D0
:100BE0000300F5D954E700BF306880017FF54FAFAF
:100BF000FFF736FC401B02284FF00300F4D947E70B
:100C00000020C4F2472000210160FFF729FC0546BF
:100C1000306880077FF507AFFFF722FC401B0228F2
:100C20004FF00300F4D933E7316F002821F00101C0
:100C30003167316F21F0040131674DD0FFF710FCAF
:100C4000054641F2883700BF306F800756D4FFF762
:100C500007FC401BB842F7D917E000BF31680028F5
:100C600021F480313160316821F4802131604FD02E
:100C7000FFF7F6FB054600BF306880033FF5B5AED1
:100C8000FFF7EEFB401B6428F6D9032002B0BDE855
:100C9000F08100BF04F11C052FCD08430021CFF6E1
:100CA000FF7140EA821001EBC3316FF30F0140EA9C
:100CB00005600843706001203866FFF7D1FB0446E9
:100CC000306880013FF5E3AEFFF7CAFB001B022846
:100CD0004FF00300F4D9DBE6FFF7C2FB054641F213
:100CE000883700BF306F800708D5FFF7B9FB401B7E
:100CF000B8424FF00300F5D9CAE600BFB8F1000FC3
:100D00007FF497AE306C20F08050306491E600BFE5
:100D1000FFF7A6FB054600BF306880037FF565AE90
:100D2000FFF79EFB401B64284FF00300F4D9AFE6A9
:100D3000411E0020B0EB116F1CBF012070474EF226
:100D40001002CEF2000251604EF62351CEF20001A5
:100D5000F0230B70072190601160704710B590F878
:100D60003C20012A4FF0020251D080F83D20026859
:100D7000D2F804E0D2F808C00C682EF070032343C8
:100D800041F2FF74C4F20004A24253600EDC40F250
:100D9000FF73C4F200039A4216DCB2F1804F2BD0ED
:100DA00040F20043C4F2000324E000BF40F2FF33EE
:100DB000C4F201039A4213DC41F60003C4F20003BB
:100DC0009A4219D0002313E040F60003C4F2000356
:100DD0009A4211D040F60043C4F200030AE000BF7B
:100DE00044F20003C4F201039A4205D040F20043EA
:100DF000C4F201039A4204D149682CF080031943DC
:100E000091600121002280F83D1080F83C201046BE
:100E100010BD0000002804BF0120704710B5044633
:100E200090F83D0028B9002084F83C00204600F0EE
:100E30001FF8022084F83D002068211D00F0E4F92D
:100E4000012084F8460084F83E0084F83F0084F8CE
:100E5000400084F8410084F8420084F8430084F89C
:100E6000440084F8450084F83D00002010BD0000D7
:100E700081B0006841F20001C4F20001884201D053
:100E800001B070470020009043F64000C4F2020019
:100E9000016841F010010160006800F0100000904E
:100EA000009801B070470000002804BF012070477F
:100EB00010B5044690F83D0028B9002084F83C00A5
:100EC000204600F021F8242084F83D002068C16805
:100ED00021F40051C160204600F034FA2068016915
:100EE00021F490410161416921F02A014161C16809
:100EF00041F40051C16000202021206484F83D109D
:100F000084F83E1010BD000080B586B0016841F243
:100F10000000C4F20100814202D006B080BD00BFD3
:100F2000002143F630020191C4F20202536900F538
:100F3000704043F010035361536903F010030193B1
:100F4000019B0191136843F001031360126802F0E2
:100F500001020192019A4FF4C06201920222CDE98E
:100F60000221032104910721059101A9FFF794F9BA
:100F700006B080BDFEE700002DE9F04786B04FF0D7
:100F8000000943F63000CDF81490CDF80090C4F27B
:100F90000200016841F2000A41F01001016001689D
:100FA000C4F2020A01F0100100910099CDF80090FE
:100FB0000168002241F004010160016801F00401B0
:100FC00000910099CDF80090016841F08001016026
:100FD000016801F0800100910099CDF8009001684E
:100FE00041F001010160016801F0010100910099E7
:100FF000CDF80090016841F00201016000687C2199
:1010000000F00200009000985046FFF723FAAAF57E
:1010100000642046072100224FF00708FFF71AFA64
:101020003C2001AE0190012702255046314602972F
:10103000CDE90359FFF730F94020CDE901075046CB
:101040003146CDE90375FFF727F920463146CDE952
:101050000187CDE90359FFF71FF906B0BDE8F08716
:1010600080B540F2100045F20041C2F20000C4F227
:10107000000148F2A06200234FF4804CC0F201024C
:1010800080E80E00C0E9033CC0E90533C0E907333E
:10109000FFF7ECF9002808BF80BDBDE88040FFF7EE
:1010A000F5B8000080B582B040F2640041F2000261
:1010B0000021C2F20000C4F200024FF6FF73CDE936
:1010C0000011C0E90021C0E902138161FFF7A2FE0F
:1010D000002818BFFFF7DAF840F26400C2F20000FF
:1010E0006946FFF73BFE002818BFFFF7CFF802B0B4
:1010F00080BD000080B540F2AC0041F20001C2F2B8
:101100000000C4F2010100234FF00C0C4FF4E13257
:1011100080E80E00C0E90333C0E905C3C361FFF7EF
:10112000C3FE002808BF80BDBDE88040FFF7AEB811
:10113000FEE70000FEE70000704700007047000077
:10114000FFF786BAB0B592B0002443F640000B9486
:10115000CDE90944CDE907440594CDE90344CDE93F
:1011600001440094C4F202000168022541F080515C
:101170000160006800F080500090009847F2000085
:101180000094C4F20000016841F4804101600068ED
:1011900000F48040009000980120099010200A90EF
:1011A00008200E90A820CDE90F050420119006A874
:1011B0000695CDE90C54FFF7FFFB28B1EFF3108043
:1011C00072B600BFFEE700BF0F20CDE901054FF466
:1011D000A05004904FF48050059001A8052103947D
:1011E000FFF7DCFA20B1EFF3108072B6FEE700BF24
:1011F00012B0B0BD4EF68850CEF20000016841F446
:10120000700101607047000010B540F6FF3E0368B2
:10121000C4F2000E40F2004C7045C4F2010C27DC11
:10122000B0F1804F31D040F20042C4F2000290424F
:101230002BD040F60002C4F20002904225D041F6C5
:10124000FF72C4F20002904229DC70453CDCB0F130
:10125000804F5FD040F20042C4F20002904259D069
:1012600040F60002C4F20002904253D056E000BFA4
:1012700040F60042C4F20002904206D0604504D01D
:101280000022C4F201029042D9D14A6823F07003CF
:10129000134341F6FF72C4F200029042D5DD43F6DB
:1012A000FF72C4F20102904222DC42F20002C4F258
:1012B000000290422ED00022C4F20102904229D0B6
:1012C000604527D02AE000BF40F60042C4F2000289
:1012D00090421FD041F60002C4F20002904219D0A1
:1012E00041F60042C4F20002904213D016E000BF63
:1012F00044F20002C4F2010290420BD044F6000214
:10130000C4F20102904205D044F20042C4F201024C
:10131000904203D1CA6823F44073134323F0800240
:101320004B69D1F800E08C681A430260C46240F453
:101330008062C0F828E0624504BF096901630121A9
:10134000416110BD10B504460068D4E902C22369AA
:10135000016921F4405111430161626943EA0C01C2
:10136000E3691143C268194349F20C639A4311437C
:10137000C1604169A26921F4407141F20043114307
:1013800040F48062C4F201039A42416102D1FFF746
:10139000C9FA01E0FFF7B2FAE16963681922B1F511
:1013A000004FA0FB02011FD15A00DB0FFEF708FF20
:1013B00048F21F51C5F2EB11A0FB01235A096FF04F
:1013C000630302FB0300322303EBC000A0FB010117
:1013D0004FF4F87000EA111000EB0210C1F3421153
:1013E00008442168886010BD9A009B0FFEF7E8FE54
:1013F00048F21F51C5F2EB11A0FB01235A096FF00F
:10140000630302FB0300322303EB0010A0FB010186
:10141000F02000EA511000EB0210C1F34311084420
:101420002168886010BD0000FEE70000FFF71EF98C
:10143000FFF788FEFFF7A0FDFFF712FEFFF732FE71
:10144000FFF758FEFEE702E008C8121F08C1002A95
:10145000FAD170477047002001E001C1121F002A35
:10146000FBD17047000000000000000001020304EF
:10147000060708090000000001020304A014000888
:10148000000000201000000046140008B0140008FE
:1014900010000020E80400005614000800000000BE
:1014A00001000000100000000024F4000000000013
:040000050800018965
:00000001FF
