:020000040800F2
:100000001805002001010008D1200008211C00086B
:10001000CD20000881050008C92700080000000065
:10002000000000000000000000000000BD270008E4
:100030004109000800000000B9270008C127000896
:100040001B0100081B0100081B0100081B01000820
:100050001B0100081B0100081B0100081B01000810
:100060001B0100081B0100081B0100081B01000800
:100070001B0100081B0100081B0100081B010008F0
:100080001B0100081B0100081B0100081B010008E0
:100090001B0100081B0100081B0100081B010008D0
:1000A0001B0100081B0100081B0100081B010008C0
:1000B0001B0100081B0100081B0100081B010008B0
:1000C0001B0100081B0100081B0100081B010008A0
:1000D0001B0100081B0100081B0100081B01000890
:1000E0001B0100081B0100081B010008DFF80CD0F1
:1000F00000F014FA004800474D2A000818050020B7
:100100000648804706480047FEE7FEE7FEE7FEE7B1
:10011000FEE7FEE7FEE7FEE7FEE7FEE7C52700088D
:10012000ED000008F0B480EA0102D40F4200B2EB07
:10013000410F02D20246084611464A0042D0C30D82
:10014000DDB2C1F3C752AD1A202D35DAC1F3160165
:1001500041F4000204B15242C5F1200602FA06F150
:100160002A411044B3EBD05F23D0C4B1012DA0EBE2
:10017000C35009DCF0BC4FF0004202EAC352DBB2CC
:1001800000F5000000F03EB9400000F1807000EB87
:10019000C350A0F1807040EAD170490009E04908DD
:1001A00041EAC071A0EBC35000F50000400800EB2D
:1001B000C350F0BC00F01DB96142012202EB4101C5
:1001C000001BF6E7F0BC704781F00041AAE780F021
:1001D0000040A7E780EA010210B502F000434000AA
:1001E00022D04A001FD0010E01EB1261C0F356006D
:1001F000C2F3560240F4000042F40002A0FB0220C9
:1002000000047F39140400D0401C50EA124001D48D
:100210004000491EC2B20C0604EBD010401C40083E
:10022000802A02D003E0002010BD20F00100002948
:1002300000DA0020184310BD2DE9FE4F81EA0304C7
:1002400004F0004421F0004100944FF0000B23F033
:10025000004350EA01045ED052EA03045BD0C3F3CA
:100260000A54C1F30A552C44A4F2F3340194A0FBC0
:100270000254C1F3130141F48011C3F3130343F497
:10028000801301FB024400FB034E840A970A44EAF0
:10029000815447EA8357A4FB076802958D0A05FB42
:1002A00007854FEA932C04FB0C542705029D4FEA67
:1002B000065847EA1637B5EB08056EEB070C870EB4
:1002C000920E47EA811742EA8312A7FB0201B6EBBE
:1002D0000B0164EB00042B0D43EA0C335E1844EB76
:1002E0001C50DA465146E7FB0201C5F313044FEAFE
:1002F0000B3343EA14534FEA0432019C43EA0603EA
:10030000A4F10C040294009CCDE900B400F0B7F80D
:1003100003B0BDE8F08F00200146F9E7002801DBBB
:10032000C0F10040002901DBC1F10041814201D848
:100330000120704700207047002801DBC0F1004019
:10034000002901DBC1F10041814201D30120704746
:1003500000207047C10F80EAE0700844CA07962366
:10036000002100F04FB80EB5C10F80EAE0700844DC
:10037000CA07002140F233438DE80E000A460B46BF
:1003800000F07DF803B000BD00F0004220F0004016
:10039000C10DC0F3160040F400007F2901DA0020EF
:1003A0007047962903DCC1F19601C84001E09639F7
:1003B0008840002AF4D04042704701F0004330B436
:1003C00021F0004150EA010206D00A0DA2F5607248
:1003D000C1F31301002A02DC30BC00207047440F37
:1003E00044EAC104C100E01830BC00EBC250AFF3D6
:1003F00000800029A8BF7047401C490008BF20F0BA
:100400000100704710B4B0FA80FC00FA0CF050EA1A
:10041000010404BF10BC704749B1CCF1200421FA9B
:1004200004F411FA0CF118BF012121430843A3EB96
:100430000C01CB1D4FEA00614FEA102042BF0020A3
:1004400010BC704700EBC35010440029A4BF10BC7F
:100450007047401C490008BF20F0010010BC7047E5
:1004600010B5141E73F1000408DA401C41F10001BC
:1004700092185B411A4301D120F0010010BD2DE913
:10048000F04D92469B4611B1B1FA81F202E0B0FA0A
:1004900080F22032904600F053F804460F4640EABE
:1004A0000A0041EA0B0153465A46084313D011464D
:1004B00053EA010019D0C8F14002504600F04FF84D
:1004C00005460E4650465946424600F039F8084364
:1004D00005D0012004E020463946BDE8F08D00201B
:1004E000054346EAE0762C4337430A986305E40A5D
:1004F000A0EB08000022FD0A44EA47540A3002D566
:1005000000200146E9E7010510196941DDE90845C8
:1005100000196941BDE8F04DA2E70000064C074D07
:1005200006E0E06840F0010394E8070098471034C3
:10053000AC42F6D3FFF7DEFD90440008B04400085B
:10054000202A04DB203A00FA02F100207047914093
:10055000C2F1200320FA03F3194390407047202A88
:1005600004DB203A21FA02F00021704721FA02F35D
:10057000D040C2F120029140084319467047000064
:10058000FEE70000B0B584B010200090002040F6D7
:10059000000401900120C4F20104029003200390A2
:1005A0006946204600F016FA2046102100F01CFB98
:1005B00090B100200546012000F0DEF92046102110
:1005C00000F012FB18B1C72D05F10100F2D3C62DC2
:1005D00002D9012004B0B0BD2046102100F004FB78
:1005E00010B1002004B0B0BD002000BF05460120BE
:1005F00000F0C2F92046102100F0F6FA18B9EF2DEC
:1006000005F10100F2D30020EE2D88BF012004B0D7
:10061000B0BD0000F0B585B040F60004C4F201049E
:1006200010250126032701A920460195CDE9026680
:10063000049700F0CFF920461021002200F0DAFAEA
:1006400040F2EE2000F098F920461021012200F03F
:10065000D1FA0F2000F090F9FFF794FFCC2000F0C2
:1006600093F8442000F090F801A92046CDE9015606
:10067000CDE9036700F0AEF920461021002200F01A
:10068000B9FA40F2EE2000F077F92046102101225D
:1006900000F0B0FA0F2000F06FF9FFF773FFCC20E5
:1006A00000F072F8BE2000F06FF800F01FF804466A
:1006B00000F01CF844EA002100F0F80000244A424F
:1006C000F82808BF91B2C3F6B074084604BF0024EE
:1006D000CBF6B074FFF747FE02460B4600202146DA
:1006E000FFF7AAFDFFF769FE05B0F0BD2DE9F04F59
:1006F00085B040F60004C4F2010401254FF0100A51
:100700004FF0030B0DF1040800264FF0010900BF64
:1007100020464146CDE901A5CDE9035B00F05AF939
:1007200020461021002200F065FA022000F024F992
:1007300020461021012200F05DFA002002A981E884
:10074000210820464146CDF804A000F043F90C20D2
:1007500000F012F92046102100F046FA0746002862
:100760004FF0320018BF012700F006F9F8013106FA
:1007700040EA5166B9F1080F09F10109C8D33046C2
:1007800005B0BDE8F08F00002DE9F04385B00746C5
:100790004FFA80F810200190012040F60004CDE9C6
:1007A00002000320C4F20104049001A9204600F0D5
:1007B00011F920461021002207F0010500F01AFA75
:1007C00002204FF00209002D08BF3C2000F0D4F8B1
:1007D00020461021012200F00DFA3C203C26002D7D
:1007E00008BF022000F0C8F820461021002207F0C0
:1007F000020500F0FFF90220002D08BF3C2000F0A8
:10080000BBF820461021012200F0F4F93C20002D15
:1008100008BF022000F0B0F820461021002207F0A7
:10082000040500F0E7F90220002D08BF3C2000F08D
:10083000A3F820461021012200F0DCF93C20002D15
:1008400008BF022000F098F820461021002207F08F
:10085000080500F0CFF90220002D08BF3C2000F071
:100860008BF820461021012200F0C4F93C20002D15
:1008700008BF022000F080F820461021002207F077
:10088000100500F0B7F90220002D08BF3C2000F051
:1008900073F820461021012200F0ACF93C20002D15
:1008A00008BF022000F068F820461021002207F05F
:1008B000200500F09FF90220002D08BF3C2000F029
:1008C0005BF820461021012200F094F93C20002D15
:1008D00008BF022000F050F820461021002207F047
:1008E000400500F087F90220002D08BF3C2000F0F1
:1008F00043F820461021012200F07CF93C20002D15
:1009000008BF022000F038F820461021002200F035
:1009100071F9B8F1FF3FC8BF4FF03C09484600F0FD
:100920002BF820461021012200F064F9B8F1FF3FB6
:10093000C8BF0226304600F01FF805B0BDE8F083BE
:1009400070470000EFF3108072B600BFFEE70000B2
:10095000B0B5044600F054F9054640F20400C2F276
:1009600000000078611C18BF044400BF00F048F983
:10097000401BA042FAD3B0BDB0B540F284046FF082
:100980000501C2F20004081A216885B220464D62B2
:1009900000F082FF4FF6F970854213D820684FF6B9
:1009A000FA7100BF426A92B28A420BD2426A92B294
:1009B0008A4207D2426A92B28A4203D2426A92B211
:1009C0008A42EFD340F28400C2F20000BDE8B0409A
:1009D00000F096BF2DE9F04F82B041F20042C4F220
:1009E00001020E680423904208BF0323002E0093E7
:1009F00000F0F68040F20C4E4FF6FF7CC4F2010E80
:100A000000220124C1F2100C4FF0000A4FF000093F
:100A100043E000BF012502F00C040F27A7402BEA9A
:100A2000070705FA04F43C4343F82640D1F804B024
:100A300040F20045C4F201055FEACB332B6854BF96
:100A400023EA080343EA08032B606B685FEA8B34F0
:100A500054BF23EA080343EA08036B605FEACB2430
:100A6000AB6854BF23EA080343EA08035FEA8B2418
:100A7000AB60DEF800304FF0010454BF23EA0803F6
:100A800043EA0803CEF800300E680AF1010A36FA8C
:100A90000AF302F1040200F0A38004FA0AF816EA4D
:100AA000080FF1D04B68634512DC122B56D8DFE8F3
:100AB00003F0350B45495555555555555555555523
:100AC0005555554D510000BFD1F80C9046E000BF80
:100AD0004FF6FF77C1F22107BB420FDC0027C1F2BE
:100AE0001107BB421AD00027C1F21207BB4215D032
:100AF0000027C1F22107BB4210D02FE00027C1F22E
:100B00002207BB420AD00027C1F23107BB4205D001
:100B10000027C1F23207BB4220D100BF8B684BB126
:100B2000012B14BFC0F81480C0F810804FF00809E2
:100B300014E000BF4FF0040910E000BFCB6803F1E0
:100B400008090BE04FF0000908E000BFCB6803F193
:100B5000040903E0CB6803F10C0900BF1346054606
:100B6000BAF1080F24BF203B04352E680F279F40A1
:100B7000BE4309FA03F333432B60CB79DB067FF5E1
:100B800083AF41F21804C4F2020423684FEA9A06C4
:100B900043F001032360236840F6000403F00103DF
:100BA0000193019B40F20043C4F20103A3F57E735D
:100BB00053F826B0C4F20104A0420FD040F600441E
:100BC000C4F20104A0423FF425AF41F20004C4F294
:100BD0000104009DA04208BF02251CE700251AE77A
:100BE00002B0BDE8F08F00008068084018BF012007
:100BF00070470000002A08BF090401617047000027
:100C000040F21010C2F200000068704770B5B8B32F
:100C1000044690F83D0028B9002084F83C002046A6
:100C200000F09EF9242084F83D002068016821F03E
:100C300001010160016841F400410160016821F493
:100C40000041016000F042FB48F28041C0F21E0109
:100C500040F60013D4F804E088424FF00001C0F2DF
:100C60003D0348F2A16C4FF0000238BF01219842C9
:100C7000C0F2010C38BF0122E64538BF0A460AB16E
:100C8000012070BD4DF68361C4F21B31A0FB01123F
:100C90002168950C4B684FF4967623F03F0343EAA6
:100CA0009243754344F6D3564B60C1F262060B6A19
:100CB000A5FB0656B50923F03F03E64538BF950C62
:100CC0006A1C1A430A62CA6948F2A0664CF6FF73AE
:100CD000C0F20106B64522EA03020BD801384FEAFA
:100CE0004E03B0FBF3F001306FF31F30042898BFC0
:100CF00004201EE0A368013863B119230EFB03F33F
:100D0000B0FBF3F001306FF31F3078B100F5804095
:100D100008E000BF0EEB4E03B0FBF3F001306FF3C1
:100D20001F3028B100F5004003E000BF012000E0C3
:100D300001201043C8610868D4E9072320F0C000EF
:100D4000104318430860886848F2FF3204F10C062B
:100D500090434CCE18431043A5698860C86820F0C2
:100D6000FF0030432843C860086840F00100086075
:100D700000202021206484F83D10206384F83E0088
:100D800070BD00002DE9F04383B0994616460F462A
:100D90000446FFF735FF94F83D1020291CD1054685
:100DA00020688169890713D5FFF72AFF401B19289E
:100DB000F6D900202021206384F83D1084F83E00FD
:100DC000216C41F02001216484F83C0004E000BF64
:100DD00094F83C10012903D1022003B0BDE8F08350
:100DE000012284F83C200368DDE90B180A9ADB072E
:100DF00003D1036843F001030360036823F4006335
:100E00000360212084F83D00402084F83E0000204B
:100E1000206462626185608D394620850020CFF6AE
:100E2000FF70E062204632464B46CDF800800195C7
:100E300000F0F8FE20B1012003B0BDE8F08300BF50
:100E4000208D002850D0206808F10106014651F895
:100E5000142F12062CD49EB1B8F1000F5AD000BF47
:100E6000086840055ED4FFF7CBFE401B404556D8CE
:100E70002068014651F8142F1206F1D518E000BF82
:100E80000A6852054ED40A68120611D40A6852053F
:100E900048D40A6812060BD40A68520542D40A687C
:100EA000120605D40A6852053CD40A681206E7D532
:100EB000626A114611F8013B0361238D6162591E7C
:100EC0002185678D013F678547697F070AD50F0434
:100ED00008D051780161911C6162991E2185628D53
:100EE000013A62850904B1D1204641462A4600F004
:100EF000D3FF38BB2068016841F4007101602020F5
:100F000084F83D00002084F83E0084F83C0003B0E3
:100F1000BDE8F0830868400504D4FFF771FE202087
:100F200004E000BF6FF480600860042000212022EC
:100F3000216384F83D2084F83E10226C1043206425
:100F400084F83C10206C04287FF475AF2068016899
:100F500041F400710160012003B0BDE8F08300009E
:100F600010B586B045F200410068C4F200010022CD
:100F70008842049202D006B010BD00BF41F21804AE
:100F8000C4F20204206840F008002060206800F0ED
:100F9000080001900198C0200290122003900320C5
:100FA000059001F5384002A9FFF714FD606840F490
:100FB00000106060606800F400100190019806B0B5
:100FC00010BD000040F2040040F21011C2F2000017
:100FD000C2F2000100780A681044086070470000FF
:100FE00080B542F20000C4F20200016841F0100135
:100FF0000160032000F07AF80F2000F005F800F0FF
:1010000027F8002080BD000070B540F20406C2F24F
:10101000000640F228013278C2F200014FF47A73E0
:101020000968B3FBF2F20446B1FBF2F1084600F0A6
:101030004FFB0F2C4FF0010508D838B94FF0FF30A7
:1010400021460022002500F025F87460284670BD76
:1010500082B041F21800C4F202000168022241F09D
:1010600001010160016801F00101019101994168EC
:1010700041F080514160406800F08050009000983D
:101080000420C4F20100016862F31A61016002B039
:101090007047000010B54EF60C5CCEF2000CDCF888
:1010A0000030C3F3022E8EF00704042C28BF042462
:1010B000BEF103034FF0FF3E0EFA04F438BF0023E5
:1010C000A14399400EFA03F39A43114300F00F0233
:1010D000043A624409010C3200F16043B0F1FF3F71
:1010E000C8BF03F56442117010BD00004EF60C51EC
:1010F000CEF200010A684FF6FF031A4060F30A229D
:1011000042F0806040F0FD70086070472DE9F043C8
:1011100081B0002800F0858042F20008C4F2020885
:101120000446D8F800000D4600F0070088420CD2B3
:10113000D8F8000020F007002843C8F80000D8F8CD
:10114000000000F00700A8426BD1206841F20409BA
:101150008107C4F2020917D5410705D5D9F8001057
:1011600041F4E061C9F80010010705D5D9F8001075
:1011700041F46051C9F80010D9F80010A26821F0BC
:10118000F0011143C9F80010C00741D1D8F80000A0
:1011900000F00700A8420CD9D8F8000020F00700A2
:1011A0002843C8F80000D8F8000000F00700A84263
:1011B00037D12068410707D5D9F80010E26821F43B
:1011C000E0611143C9F80010000708D5D9F8000004
:1011D000216920F4605040EAC100C9F80000D9F844
:1011E000002002F00C00082841F20020C0F27A0032
:1011F00050D144F27E43C2F38341C0F60003595CF0
:10120000D2033BD440F60010C0F23D00484341E019
:10121000606802280AD001282AD159F8041C8903E1
:1012200008D4012001B0BDE8F08300BF59F8041CC8
:101230008901F6D5D9F8001021F003010843C9F857
:101240000000FFF7DDFC064641F28837D9F80000C0
:10125000616800F00C00B0EB810F97D0FFF7D0FC75
:10126000801BB842F2D9032001B0BDE8F08300BF73
:1012700059F8041C8907D4D5DCE700BFD9F8002051
:1012800042F66C43C2F34042C0F600039A5C484306
:10129000B0FBF2F0D9F8001042F66E42C1F3031130
:1012A000C0F60002515C40F2280220FA01F140F23F
:1012B0000800C2F200000068C2F200021160FFF7ED
:1012C000A3FE002001B0BDE8F083000040F228003A
:1012D00041F20401C2F20000C4F202010068096890
:1012E00042F67E42C1F30221C0F60002515CC840C2
:1012F0007047000040F2280041F20401C2F20000F1
:10130000C4F202010068096842F67E42C1F3C221BC
:10131000C0F60002515CC840704700002DE9F04162
:1013200082B0002868D00446007841F20006C00769
:10133000C4F2020625D0706800F00C0004281BD00F
:10134000706800F00C00082802D17068C00313D444
:101350006068002800F06881B0F5A02F00F07C8163
:10136000B0F5803F00F07C81306820F48030306040
:10137000306820F4802076E13068800301D5606811
:10138000D0B32078800718D5706810F00C0F07D004
:10139000706800F00C0008286ED17068C0036BD430
:1013A0003068800702D52069012825D1306861693D
:1013B00020F0F80040EAC1003060207800071FD418
:1013C0002078400732D4E56995B1706800F00C00D0
:1013D000082840F08F80012D0ED07068216A00F43B
:1013E00080328A4208D1616A00F47010884203D1C9
:1013F000002002B0BDE8F081012002B0BDE8F0811C
:10140000A069002862D00020C4F242200121C0F867
:101410008014FFF7F5FB0546706A800700F18C80A9
:10142000FFF7EEFB401B0228F6D92AE1F06910F025
:10143000805808D1F06940F08050F061F06900F008
:1014400080500090009847F20007C4F20007386807
:10145000C00529D4386840F480703860FFF7D0FBAD
:10146000054600BF3868C0051ED4FFF7C9FB401B06
:101470006428F7D905E100BF2069002840F2000088
:10148000C4F2422000F0828001210160FFF7B8FB26
:10149000054600BF306880073FF588AFFFF7B0FB17
:1014A000401B0228F6D9ECE0E068002800F08080BC
:1014B000052800F09780012800F09880306A20F01D
:1014C00001003062306A20F0040092E00020C4F293
:1014D00042200021C0F88014FFF792FB054600BFB0
:1014E000706A80077FF56CAFFFF78AFB401B02280C
:1014F000F6D9C6E00027C4F2422700203866FFF77D
:101500007FFB022D05460BD13068800140F1BE8083
:10151000FFF776FB401B02284FF00300F4D968E781
:10152000306880017FF564AFFFF76AFB401B02283B
:101530004FF00300F4D95CE740F22800C2F200004B
:10154000006844F6D351C1F26201A0FB0101480AD0
:10155000019000BF00BF0198411E002801913FF497
:101560002FAF00BF0198411E002801913FF428AF22
:1015700000BF0198411E002801913FF421AF00BF38
:101580000198411E00280191E4D119E70021016072
:10159000FFF736FB054600BF306880077FF50DAFCB
:1015A000FFF72EFB401B02284FF00300F4D920E781
:1015B000306A20F001003062306A20F004003062AE
:1015C000FFF71EFB054641F2883700BF306A8007EF
:1015D00020D5FFF715FB401BB8424FF00300F5D9AB
:1015E00007E700BF306A40F004003062306A40F024
:1015F00001003062FFF704FB054641F2883700BF67
:10160000306A800706D4FFF7FBFA401BB842F7D9CF
:1016100037E000BFB8F1000F7FF4D5AEF06920F0DD
:101620008050F061CFE600BF306820F48030306039
:10163000306820F480203060FFF7E2FA054600BFF2
:10164000306880037FF59DAEFFF7DAFA401B64280F
:101650004FF00300F4D9CCE6306840F480203060CD
:10166000306840F480303060FFF7CAFA054600BFAA
:10167000306880033FF585AEFFF7C2FA401B64284F
:10168000F6D9032002B0BDE8F08100BF206AB0F5B2
:10169000803F05D17168A26821F400311143716067
:1016A0007168626A21F4741110430843706001206C
:1016B0003866FFF7A5FA0446306880013FF598AE1A
:1016C000FFF79EFA001B02284FF00300F4D990E6C2
:1016D000411E0020B0EB116F1CBF012070474EF27D
:1016E0001002CEF2000251604EF62351CEF20001FC
:1016F000F0230B70072190601160704710B590F8CF
:101700003C20012A4FF0020233D080F83D200268CD
:10171000D2F804E0D2F808C00C682EF0700323431E
:1017200040F2FF74C4F20004A24253600ADCB2F13A
:10173000804F13D040F20043C4F200039A420DD010
:1017400011E000BF42F60043C4F201039A4205D003
:1017500040F60003C4F200039A4204D149682CF019
:101760008003194391600121002280F83D1080F828
:101770003C20104610BD0000002804BF0120704727
:1017800010B5044690F83D0028B9002084F83C00CC
:10179000204600F067F8022084F83D00206840F2FF
:1017A000FF730268C4F2000342F6004C9842C4F290
:1017B000010C15DCB0F1804F1AD040F20041C4F2A8
:1017C0000001884214D0984218DCB0F1804F1DD03F
:1017D00040F20041C4F20001884217D01AE000BF75
:1017E000604505D040F60001C4F200018842EAD10C
:1017F000A16822F070020A439842E6DD604505D0F8
:1018000040F60001C4F20001884203D1216922F4AC
:1018100040720A43A36922F08001D4F804E0E26830
:10182000194360450160C262C0F828E002D16169D5
:10183000CCF8301001214161002084F8461084F872
:101840003E1084F83F1084F8401084F8411084F86A
:10185000421084F8431084F8441084F8451084F84A
:101860003D1010BD81B0006842F60041C4F2010194
:10187000884201D001B0704741F21800C4F2020062
:10188000016841F400610160006800F400600090AC
:10189000009801B07047000090F83D1001291CBF6E
:1018A00001207047022180F83D10006840F2FF716E
:1018B000C4F20001884209DCB0F1804F12D040F23E
:1018C0000041C4F2000188420CD012E042F600410F
:1018D000C4F20101884205D040F60001C4F20001C3
:1018E000884206D1816801F00701062904BF002063
:1018F0007047016841F0010101600020704700005D
:101900000146006841F21113026A1A4204D0012212
:10191000002081F83D207047026A40F244431A4299
:10192000F5D1026822F0010202600122002081F854
:101930003D20704780B590F83C20012A4FF002020C
:1019400000F0BF8080F83D20D0F800C04FF67772DD
:10195000DCF8083023EA0202CCF808200B683F2BA1
:101960001CDD5F2B20DD602B50D0B3F5005F6DD008
:10197000702B40F0A080D1E901E3C968DCF80820B1
:1019800043EA0E0322F47F4243EA01211143CCF8DB
:101990000810DCF8081041F077018AE01F2B29DCE1
:1019A00063B3102B2AD086E0402B63D0502B40F03D
:1019B0008280D1F804E0C968DCF82030DCF820200F
:1019C00022F00102CCF82020DCF8182022F0F002EE
:1019D00042EA011123F00A0242EA0E02CCF8181082
:1019E000CCF82020DCF8081041F0570121F020014C
:1019F0005FE000BF202B01D0302B5CD1DCF8081059
:101A000021F07001194341F0070152E0D1F804E0E0
:101A1000C968DCF8203023F01003CCF82030DCF863
:101A20001830DCF8202023F4704322F0A00243EAAF
:101A3000013142EA0E12CCF81810CCF82020DCF864
:101A4000081041F0670121F0100132E0D1E901E313
:101A5000C968DCF8082043EA0E0322F47F4243EA17
:101A600001211143CCF80810DCF8081041F4804142
:101A70001FE000BFD1F804E0C968DCF82030DCF8D2
:101A8000202022F00102CCF82020DCF8182022F0DF
:101A9000F00242EA011123F00A0242EA0E02CCF8F7
:101AA0001810CCF82020DCF8081041F0470121F094
:101AB0003001CCF808100121002280F83D1080F898
:101AC0003C20104680BD0000002804BF0120704764
:101AD00010B5044690F83D0028B9002084F83C0079
:101AE000204600F05FF8242084F83D002068D4E907
:101AF0000212C36823F40053C360036923F4405304
:101B00001A430261D4E904231143C268194341F224
:101B10000C639A431143C1604169A26921F4407189
:101B2000114343F60002C4F201029042416103D026
:101B3000FFF7CCFB02E000BFFFF7DCFB6268192176
:101B400048439100B0FBF1F048F21F51C5F2EB1190
:101B5000A0FB01235A096FF0630302FB0300322349
:101B600003EB0010A0FB0101F02303EA51132068EE
:101B700003EB0212C1F3431111448160016921F4A6
:101B800090410161416921F02A014161C16841F43C
:101B90000051C16000202021206484F83D1084F8A9
:101BA0003E1010BD70B586B040F60004C4F20104CA
:101BB000006804F5405100268842049602D006B021
:101BC00070BD00BF41F21800C4F20200016802AD0E
:101BD00041F480410160016801F480410191019963
:101BE000016841F0040101600068294600F004002A
:101BF000019001984FF4007002900220039003209E
:101C000005902046FEF7E6FE4FF48060CDE902061F
:101C1000204629460496FEF7DDFE06B070BD0000A2
:101C2000FEE700002DE9F04381B0044600689046CD
:101C30000268099D42F4807202604269089E9946DA
:101C4000D2070F461DD1711C11D0002E00F0D2809A
:101C5000FEF7D6FF401BB04200F2CE8020684169FB
:101C6000C907F5D00DE000BF4169C90709D1416935
:101C7000C90706D14169C90704BF41695FEAC1715B
:101C8000F2D007F0FE0101614169890738D441694A
:101C9000721C01F4806111D049BB002E00F0E88075
:101CA000FEF7AEFF401BB04200F2E48020684169BD
:101CB000890725D441694905F2D518E0B9B94169C8
:101CC00089071DD44169490511D44169890717D491
:101CD000416949050BD44169890711D44169490516
:101CE00005D4416989070BD441694905E7D50168E5
:101CF00041F4007101606FF4806141610420BAE039
:101D000000210091014651F8142F00924A68009278
:101D1000009A0A6812061ED4002E00F08580721CFC
:101D20004DD10A68520500F187800A68120612D464
:101D30000A68520500F180800A6812060BD40A680E
:101D4000520579D40A68120605D40A68520573D47C
:101D50000A681206E5D5B9F1010F43D04FEA182100
:101D60000161014651F8142F12063BD4002E5BD0BE
:101D7000721C29D10A6852055ED40A68120631D451
:101D80000A68520558D40A6812062BD40A6852050C
:101D900052D40A68120625D40A6852054CD40A683F
:101DA0001206E7D51EE000BFFEF72AFF401BB04237
:101DB0003FD82068014651F8142F1206CBD408688A
:101DC0004005F1D538E000BF0868400534D4FEF77F
:101DD00017FF401BB0422CD82068014651F8142F41
:101DE0001206F1D55FFA88F10161002001B0BDE86B
:101DF000F08300BFFEF704FF00202021206384F859
:101E00003D1084F83E00216C41F0200121642168DE
:101E100084F83C000868C00544BF4FF4007020649B
:101E2000032001B0BDE8F0830868400504D4FEF744
:101E3000E7FE202004E000BF6FF48060086004200B
:101E400000212022216384F83D2084F83E10226C7A
:101E50001043206484F83C10206C042817D12068BB
:101E6000016841F400710160012001B0BDE8F08318
:101E7000FEF7C6FE202000212022216384F83D20A9
:101E800084F83E10226C1043206484F83C1001203A
:101E900001B0BDE8F083000070B50368044653F854
:101EA000140F400737D40E46F1B1701C24D100BF87
:101EB0001868400532D4186840072CD418684005CB
:101EC0002CD41868400726D41868400526D4186812
:101ED000400720D41868400520D4186840074FF008
:101EE000000048BF70BDE3E71868400516D4FEF750
:101EF00087FE202016E000BF154600BF1868400589
:101F00000CD4FEF77DFE401BB042F2D8236853F894
:101F1000140F4007F2D5002070BD00BF6FF4806041
:101F20001860042000212022216384F83D2084F8D9
:101F30003E10226C10432064012084F83C1070BDD8
:101F400070B584B041F21800C4F20200016840F696
:101F5000000441F0100101600168C4F2010401F0C5
:101F60001001009100990168002241F020010160F8
:101F7000016801F0200100910099016841F004011D
:101F80000160016801F0040100910099016841F0CD
:101F9000080101600068F82100F008000090009836
:101FA0002046FEF727FEE820009002206D4601261D
:101FB000CDE90200204629460196FEF70BFD1020D0
:101FC000CDE9000603200390204629460296FEF73D
:101FD00001FD04B070BD000080B540F2300045F254
:101FE0000041C2F20000C4F2000148F2A0620023E6
:101FF0004FF4804CC0F2010280E80E00C0E9033CBF
:10200000C0E90533C0E90733FEF700FE002808BF2A
:1020100080BDBDE88040FEF795BC000080B586B06D
:1020200040F2840042F600420021C2F20000C4F2F5
:1020300001024FF6FF730591CDE90311CDE90011BF
:10204000C0E90021C0E90213C0E904118161FFF772
:1020500093FB002818BFFEF775FC4FF480500290E8
:1020600040F28400C2F2000002A9FFF763FC0028DE
:1020700018BFFEF767FC40F28400C2F20000694618
:10208000FFF73CFB002818BFFEF75CFC06B080BDE4
:1020900080B540F2CC0043F60001C2F20000C4F269
:1020A000010100234FF00C0C4FF4E13280E80E00E8
:1020B000C0E90333C0E905C3C361FFF705FD00288C
:1020C00008BF80BDBDE88040FEF73CBCFEE70000D5
:1020D000FEE700002DE9F04F85B040F23004002506
:1020E0004FF480760127C2F200040DF1120B0DF1BE
:1020F00013084FF0000900BF09F1B0008DF810007F
:1021000004A8CDE900072046782100220123029689
:10211000FEF738FE0DF11100CDE9000720467821C9
:10212000002201238DF811500296FEF72BFE10209D
:102130008DF812002046782100220123CDE900B756
:102140000296FEF71FFE4FF0000A00BF20467821DE
:10215000402201238DF81350CDE900870296FEF747
:1021600011FE0AF101004FFA80FABAF1FF3FEDDCEF
:10217000B9F1070F09F10109BED305B0BDE8F08F31
:1021800080B5C820FEF7E4FBBDE8804000F01EBB30
:102190002DE9F04F89B0064640B20D460028A2F165
:1021A000200744BF02350026102BA5F1500040F057
:1021B0003F8140F230048DF818004FF0010906A865
:1021C000C2F200044FF48078CDE90009204678215E
:1021D00000220123CDF80880FEF7D4FD300910302D
:1021E00005908DF819000DF11900CDE90009204680
:1021F000782100220123CDF80880FEF7C3FD06F008
:102200000F0004908DF81A000DF11A00CDE90009B5
:102210002046782100220123CDF80880FEF7B2FD88
:10222000F8B242F6AE620101C0F60002515C02EB68
:1022300000168DF81B100DF11B0720467821402257
:102240000123CDE90079CDF80880FEF79BFD707879
:10225000317996F802A096F803B003918DF81B002F
:102260002046782140220123CDE90079CDF808806D
:10227000FEF788FD20467821402201238DF81BA01F
:10228000CDE90079CDF80880FEF77CFD2046782165
:10229000402201238DF81BB0CDE90079CDF80880EC
:1022A000FEF770FD039878218DF81B002046402230
:1022B0000123CDE90079CDF80880FEF763FD707940
:1022C00078218DF81B00204640220123CDE90079BA
:1022D000CDF80880FEF756FDB07978218DF81B0007
:1022E000204640220123CDE90079CDF80880FEF791
:1022F00049FDF07978218DF81B002046402201230A
:10230000CDE90079CDF80880FEF73CFDA5F14F003E
:102310008DF81C0007A8CDE900092046782100228D
:102320000123CDF80880FEF72DFD059878218DF862
:102330001D000DF11D00CDE90009204600220123FA
:10234000CDF80880FEF71EFD049878218DF81E0058
:102350000DF11E00CDE90009204600220123CDF831
:102360000880FEF70FFD307A0DF11F058DF81F0074
:102370002046782140220123CDE90059CDF808807C
:10238000FEF700FD707A78218DF81F00204640226C
:102390000123CDE90059CDF80880FEF7F3FCB07AAF
:1023A00078218DF81F00204640220123CDE90059F5
:1023B000CDF80880FEF7E6FCF07A78218DF81F0052
:1023C000204640220123CDE90059CDF80880FEF7D0
:1023D000D9FC307B78218DF81F0020464022012354
:1023E000CDE90059CDF80880FEF7CCFC707B782150
:1023F0008DF81F00204640220123CDE90059CDF879
:102400000880FEF7BFFCB07B78218DF81F002046C6
:1024100040220123CDE90059CDF80880FEF7B2FC37
:10242000F07BCDE900598DF81F00204689E000BF00
:1024300040F2300B8DF820004FF0010A08A8C2F2DC
:10244000000B4FF48078CDE9000A5846782100222D
:102450000123CDF80880FEF795FC300910308DF887
:1024600021000DF12100CDE9000A58467821002213
:102470000123CDF80880FEF785FC06F00F008DF8EB
:1024800022000DF12200CDE9000A584678210022F1
:102490000123CDF80880FEF775FCF8B242F68641BC
:1024A00000EB4000C0F6000111F8102001EB4005E0
:1024B0008DF823200DF12306584678214022012370
:1024C000CDE9006ACDF80880FEF75CFC6878AF784B
:1024D000EC7895F804908DF8230058467821402236
:1024E0000123CDE9006ACDF80880FEF74BFC584681
:1024F0007821402201238DF82370CDE9006ACDF8C0
:102500000880FEF73FFC58467821402201238DF8D1
:102510002340CDE9006ACDF80880FEF733FC584629
:102520007821402201238DF82390CDE9006ACDF86F
:102530000880FEF727FC6879CDE9006A8DF8230052
:102540005846782140220123CDF80880FEF71AFC76
:1025500009B0BDE8F08F00002DE9F04F87B00646C6
:10256000A1F1500040F230058DF81400012705A8B4
:10257000C2F20005144604914FF4807ACDE90007B9
:102580002846782100220123CDF808A0FEF7FAFBA7
:10259000300900F110080DF11500CDE900072846BB
:1025A0007821002201238DF81580CDF808A0FEF7D0
:1025B000E9FB0DF1160006F00F0BCDE900072846E8
:1025C0007821002201238DF816B0CDF808A0FEF77F
:1025D000D9FB43F28E41C4EB0420C0F6000101EBAD
:1025E00040064FF0FF340DF1170900BF3019407855
:1025F00078218DF81700284640220123CDE9009765
:10260000CDF808A0FEF7BEFB01341F2CEED10498D4
:1026100040F230044F388DF818004FF0010A06A838
:10262000C2F200044FF48079CDE9000A20467821F7
:1026300000220123CDF80890FEF7A4FB0DF119004C
:10264000CDE9000A20467821002201238DF8198067
:10265000CDF80890FEF796FB0DF11A00CDE9000ABF
:1026600020467821002201238DF81AB0CDF8089079
:10267000FEF788FBFE250DF11B0700BF701940789F
:1026800078218DF81B00204640220123CDE9007AF5
:10269000CDF80890FEF776FB0135B5F58F7FEDD1CB
:1026A00007B0BDE8F08F00002DE9F04F85B0002B9A
:1026B000049103907CD00E981C464508981E00900B
:1026C00058421746591E4FF000085FFA80FB42F24D
:1026D000107900264FF0000A0291019212E000BF2B
:1026E0000126039940F0300205FB08110E9BC8B289
:1026F0000499D2B2FFF74CFD08F10108A0450AF198
:10270000010A55D06FEA0A00C0B2584502D1012033
:102710002AE000BF00996FEA0800A1EB0801C9B2E6
:10272000032900EB040101D2012009E001F0FC02C1
:10273000002301200433DFB2974200FB09F0F9D1F6
:10274000019F11F003010FD0012903D100EB80009C
:10275000400009E04FF47A72424302294FF06401CD
:1027600008BF00FB01F21046B7FBF0F04CF6CD417C
:10277000CCF6CC41A0FB0112D10801EB8101002E67
:10278000A0EB4100ADD102994145AADD0028A7D1B7
:102790000398049905FB08000E9BC0B22022FFF7A6
:1027A000F7FC002608F10108A0450AF1010AA9D1A9
:1027B00005B0BDE8F08F00007047000070470000D2
:1027C000FEF700BC70470000FEE70000F0B583B0E4
:1027D00040F2300440F20C07C2F200044FF480755E
:1027E0000126C2F200072046782100220123CDE90C
:1027F00000760295FEF7C6FA781CCDE90006204661
:102800007821002201230295FEF7BCFAB81CCDE91D
:10281000000620467821002201230295FEF7B2FA35
:10282000F81CCDE9000620467821002201230295FC
:10283000FEF7A8FA381DCDE90006204678210022CF
:1028400001230295FEF79EFA781DCDE90006204689
:102850007821002201230295FEF794FAB81DCDE9F4
:10286000000620467821002201230295FEF78AFA0D
:10287000F81DCDE9000620467821002201230295AB
:10288000FEF780FA07F10800CDE90006204678211E
:10289000002201230295FEF775FA07F10900CDE940
:1028A000000620467821002201230295FEF76AFAED
:1028B00007F10A00CDE90006204678210022012315
:1028C0000295FEF75FFA07F10B00CDE900062046FE
:1028D0007821002201230295FEF754FA07F10C003B
:1028E000CDE9000620467821002201230295FEF75B
:1028F00049FA07F10D00CDE90006204678210022B3
:1029000001230295FEF73EFA07F10E00CDE900061D
:1029100020467821002201230295FEF733FA07F1C1
:102920000F00CDE900062046782100220123029500
:10293000FEF728FA07F11000CDE9000620467821BD
:10294000002201230295FEF71DFA07F11100CDE9DF
:10295000000620467821002201230295FEF712FA94
:1029600007F11200CDE9000620467821002201235C
:102970000295FEF707FA07F11300CDE9000620469D
:102980007821002201230295FEF7FCF907F11400DB
:10299000CDE9000620467821002201230295FEF7AA
:1029A000F1F907F11500CDE9000620467821002253
:1029B00001230295FEF7E6F907F11600CDE90006BE
:1029C00020467821002201230295FEF7DBF907F16A
:1029D0001700CDE900062046782100220123029548
:1029E000FEF7D0F907F11800CDE90006204678215E
:1029F000002201230295FEF7C5F907F11900CDE980
:102A0000000620467821002201230295FEF7BAF93C
:102A100007F11A00CDE900062046782100220123A3
:102A20000295FEF7AFF903B0F0BD000040F60000DC
:102A3000C4F2010008210122FEF7DCB840F60000D4
:102A4000C4F2010040210122FEF7D4B890B0FEF795
:102A5000C7FA00240120CDE90B44CDE909440690D2
:102A60000A904FF4E0104FF4803102250F9006A831
:102A7000CDE90714CDE90D51FEF750FC20B1EFF37D
:102A8000108072B6FEE700BF0F20CDE901054FF4BC
:102A90008060CDE9040401A802210394FEF736FB0F
:102AA00020B1EFF3108072B6FEE700BFFFF748FADF
:102AB000FFF792FAFFF7B2FAFFF7EAFAFFF760FBC7
:102AC000FFF708FB1020002100224FF01009FFF74C
:102AD00043FD202000210122FFF73EFD3020002190
:102AE0000222FFF739FD402000210322FFF734FDC9
:102AF000502000210422FFF72FFD60200021052235
:102B0000FFF72AFD002004210622FFF725FD1020F3
:102B100004210722FFF720FD202004210022FFF7D7
:102B20001BFD302004210122FFF716FD4020042167
:102B30003A221023FFF72CFB29A000F085F800248F
:102B400040F20008C4F22014C4F2702804E000BF70
:102B500000F04AF8FFF76AFFFDF75CFD0646FDF757
:102B600013FC0746FDF7F6FB01463046FDF72CFB4C
:102B70002146FDF72FFBFDF707FC0546FAB248207A
:102B800004210223CDF80090FFF78EFD5820042188
:102B90002E221023FFF7FCFA602004212A4601238D
:102BA000CDF80090FFF780FD682004214322102318
:102BB000FFF7EEFA30464146FDF7B0FB0028C7D0DC
:102BC00030462146FDF7B8FB20B900F01DF8FFF7AD
:102BD0002DFFC1E7FFF732FF00F00EF8BCE700BFA2
:102BE00048656C6C6F0D000040F60000C4F20100F7
:102BF00020210122FDF7FEBF40F60000C4F20100D3
:102C000008210022FDF7F6BF40F60000C4F20100E3
:102C100080210122FDF7EEBF02E008C8121F08C1A3
:102C2000002AFAD170477047002001E001C1121F4D
:102C3000002AFBD1704738B504468DF8000069467C
:102C40000320ABBE204638BD10B5044601E0FFF7B7
:102C5000F2FF14F8010B04490028F8D1BDE8104038
:102C60000A20FFF7E8BF000000000020010200007A
:102C7000000000000000010203040607080900002C
:102C80000000010203040000000000000000002F0B
:102C9000000000000700070000147F147F140024C8
:102CA0002A7F2A12006264081323003649552250F5
:102CB00000000503000000001C224100000041222A
:102CC0001C000014083E08140008083E0808000014
:102CD00000A060000008080808080000606000000C
:102CE000002010080402003E5149453E0000427F8A
:102CF0004000004261514946002141454B310018D6
:102D000014127F10002745454539003C4A49493097
:102D10000001710905030036494949360006494951
:102D2000291E00003636000000005636000000085C
:102D30001422410000141414141400004122140839
:102D400000020151090600324959513E007C12111E
:102D5000127C007F49494936003E41414122007FB3
:102D60004141221C007F49494941007F090909016D
:102D7000003E4149497A007F0808087F0000417FF2
:102D80004100002040413F01007F08142241007FA4
:102D900040404040007F020C027F007F0408107F0B
:102DA000003E4141413E007F09090906003E415174
:102DB000215E007F09192946004649494931000131
:102DC000017F0101003F4040403F001F2040201F85
:102DD000003F4038403F0063140814630007087048
:102DE000080700615149454300007F4141000055FB
:102DF0002A552A55000041417F00000402010204C7
:102E000000404040404000000102040000205454B3
:102E10005478007F48444438003844444420003803
:102E20004444487F00385454541800087E09010275
:102E30000018A4A4A47C007F080404780000447D4A
:102E40004000004080847D00007F10284400000086
:102E5000417F4000007C04180478007C080404785A
:102E600000384444443800FC242424180018242446
:102E700018FC007C08040408004854545420000442
:102E80003F444020003C4040207C001C2040201C4F
:102E9000003C4030403C004428102844001CA0A0C6
:102EA000A07C004464544C44141414141414000002
:102EB0000000000000000000000000000000000012
:102EC00000F8000000000000003330000000001097
:102ED0000C06100C0600000000000000000040C0BE
:102EE0007840C0784000043F04043F0404000070B0
:102EF00088FC08300000001820FF211E0000F008A8
:102F0000F000E018000000211C031E211E0000F04C
:102F10000888700000001E21232419272110101694
:102F20000E00000000000000000000000000000093
:102F300000E0180402000000000718204000000212
:102F40000418E00000000040201807000000404086
:102F500080F0804040000202010F010202000000E8
:102F600000F0000000000101011F0101010000004C
:102F700000000000000080B07000000000000000B1
:102F8000000000000000000101010101010100003A
:102F900000000000000000303000000000000000D1
:102FA000000080601804006018060100000000E0C6
:102FB00010080810E000000F102020100F00001073
:102FC00010F8000000000020203F202000000070CA
:102FD00008080888700000302824222130000030C2
:102FE0000888884830000018202020110E000000BA
:102FF000C02010F8000000070424243F240000F83B
:103000000888880808000019212020110E0000E01F
:10301000108888180000000F112020110E000038C1
:103020000808C83808000000003F000000000070D9
:10303000880808887000001C222121221C0000E062
:1030400010080810E0000000312222110F000000DB
:1030500000C0C00000000000003030000000000090
:103060000080000000000000806000000000000000
:103070008040201008000001020408102000404099
:1030800040404040400004040404040404000008DC
:103090001020408000000020100804020100007091
:1030A00048080808F0000000003036010000C03079
:1030B000C828E810E0000718272423140B0000009C
:1030C000C038E0000000203C23020227382008F826
:1030D000888888700000203F202020110E00C0301A
:1030E000080808083800071820202010080008F8F1
:1030F00008080810E000203F202020100F0008F8EA
:103100008888E8081000203F20202320180008F8B5
:103110008888E8081000203F200003000000C0302D
:1031200008080838000007182020221E020008F8AE
:1031300008000008F808203F210101213F20000875
:1031400008F8080800000020203F202000000000B0
:103150000808F8080800C08080807F00000008F898
:1031600088C028180800203F20012638200008F8D1
:10317000080000000000203F20202020300008F838
:10318000F800F8F80800203F003F003F200008F852
:1031900030C00008F808203F200007183F00E0106A
:1031A00008080810E0000F10202020100F0008F879
:1031B00008080808F000203F210101010000E0108C
:1031C00008080810E0000F18242438504F0008F8B1
:1031D000888888887000203F2000030C3020007011
:1031E0008808080838000038202121221C0018080F
:1031F00008F8080818000000203F2000000008F828
:1032000008000008F808001F202020201F00087870
:10321000880000C83808000007380E010000F808D0
:1032200000F80008F800033C0700073C03000818FA
:1032300068808068180820302C03032C3020083860
:10324000C800C83808000000203F20000000100817
:103250000808C8380800203826212020180000005F
:1032600000FE020202000000007F40404000000C0F
:1032700030C000000000000000010638C00000025D
:103280000202FE000000004040407F0000000000FD
:103290000402020204000000000000000000000020
:1032A000000000000000808080808080808000021C
:1032B0000204000000000000000000000000000008
:1032C0008080808000000019242222223F2008F8FC
:1032D000008080000000003F112020110E0000003F
:1032E000008080800000000E1120202011000000CE
:1032F00000808088F800000E112020103F20000080
:10330000808080800000001F222222221300008083
:1033100080F0888888180020203F202000000000CE
:10332000808080808000006B94949493600008F803
:10333000008080800000203F210000203F2000808E
:103340009898000000000020203F2020000000008E
:1033500000809898000000C08080807F000008F8FE
:10336000000080808000203F24022D3020000008D3
:1033700008F8000000000020203F2020000080808E
:10338000808080808000203F20003F20003F8080A0
:10339000008080800000203F210000203F200000AE
:1033A000808080800000001F202020201F0080805F
:1033B00000808000000080FFA12020110E0000008E
:1033C000008080808000000E112020A0FF8080807F
:1033D00080008080800020203F212000010000002C
:1033E0008080808080000033242424241900008001
:1033F00080E0808000000000001F2020000080800E
:10340000000000808000001F202020103F208080CE
:1034100080000080808000010E300806010080805E
:103420000080008080800F300C030C300F00008083
:103430008000808080000020312E0E3120008080AE
:1034400080000080808080818E70180601000080DE
:103450008080808080000021302C222130000000FC
:103460000000807C020200000000003F404000029B
:10347000027C800000000040403F0000000000008F
:103480000000FF00000000000000FF0000001060CE
:10349000028C0000FE9292929292FE0000000000C8
:1034A000000000000000000000000000000000001C
:1034B000000000000000000000000000000000000C
:1034C00000000000000000000000000000000000FC
:1034D00000000000000000000000000000000000EC
:1034E00000000000000000000000000000000000DC
:1034F00000000000000000000000000000000000CC
:1035000000000000000000000000000000000000BB
:1035100000000000000000000000000000000000AB
:10352000000000000000000000000000000000009B
:10353000000000000000000000000000000000008B
:10354000000000000000000000000000000000007B
:10355000000000000000000000000000000000006B
:10356000000000000000000000000000000000005B
:10357000000000000000000000000000000000004B
:103580000000000000000000000000000004047EB5
:1035900001407E42427E427E42427E400000000068
:1035A000000000000000000000000000000000001B
:1035B000000000000000000000000000000000000B
:1035C00000000000000000000000000000000000FB
:1035D00000000000000000000000000000000000EB
:1035E00000000000000000000000000000000000DB
:1035F00000000000000000000000000000000000CB
:1036000000000000000000000000000000000000BA
:1036100000000000000000000000000000000000AA
:10362000000000000000000000000000000000009A
:10363000000000000000000000000000000000008A
:10364000000000000000000000000000000000007A
:10365000000000000000000000000000000000006A
:10366000000000000000000000000000000000005A
:10367000000000000000000000000000000000004A
:103680000000000000000000000000000000FC241A
:103690002424FC252624FC2424240400000000000B
:1036A000000000000000000000000000000000001A
:1036B000000000000000000000000000000000000A
:1036C00000000000000000000000000000000000FA
:1036D00000000000000000000000000000000000EA
:1036E00000000000000000000000000000000000DA
:1036F00000000000000000000000000000000000CA
:1037000000000000000000000000000000000000B9
:1037100000000000000000000000000000000000A9
:103720000000000000000000000000000000000099
:103730000000000000000000000000000000000089
:103740000000000000000000000000000000000079
:103750000000000000000000000000000000000069
:103760000000000000000000000000000000000059
:103770000000000000000000000000000000000049
:10378000000000000000000000000040308F808436
:103790004C55252525554C808080000000000000F8
:1037A0000000000000000000000000000000000019
:1037B0000000000000000000000000000000000009
:1037C00000000000000000000000000000000000F9
:1037D00000000000000000000000000000000000E9
:1037E00000000000000000000000000000000000D9
:1037F00000000000000000000000000000000000C9
:1038000000000000000000000000000000000000B8
:1038100000000000000000000000000000000000A8
:103820000000000000000000000000000000000098
:103830000000000000000000000000000000000088
:103840000000000000000000000000000000000078
:103850000000000000000000000000000000000068
:103860000000000000000000000000000000000058
:103870000000000000000000000000000000000048
:103880000000000000000000000000007E0000FFBB
:103890000040300F04146404000000000000000029
:1038A0000000000000000000000000000000000018
:1038B0000000000000000000000000000000000008
:1038C00000000000000000000000000000000000F8
:1038D00000000000000000000000000000000000E8
:1038E00000000000000000000000000000000000D8
:1038F00000000000000000000000000000000000C8
:1039000000000000000000000000000000000000B7
:1039100000000000000000000000000000000000A7
:103920000000000000000000000000000000000097
:103930000000000000000000000000000000000087
:103940000000000000000000000000000000000077
:103950000000000000000000000000000000000067
:103960000000000000000000000000000000000057
:103970000000000000000000000000000000000047
:1039800000000000000000000040407E42427E42F5
:1039900042427E42427E40400000000000000000A3
:1039A0000000000000000000000000000000000017
:1039B0000000000000000000000000000000000007
:1039C00000000000000000000000000000000000F7
:1039D00000000000000000000000000000000000E7
:1039E00000000000000000000000000000000000D7
:1039F00000000000000000000000000000000000C7
:103A000000000000000000000000000000000000B6
:103A100000000000000000000000000000000000A6
:103A20000000000000000000000000000000000096
:103A30000000000000000000000000000000000086
:103A40000000000000000000000000000000000076
:103A50000000000000000000000000000000000066
:103A60000000000000000000000000000000000056
:103A70000000000000000000000000000000000046
:103A800000000000000000001060028C00FE02F246
:103A900002FE00F800FF000000000000000000002F
:103AA0000000000000000000000000000000000016
:103AB0000000000000000000000000000000000006
:103AC00000000000000000000000000000000000F6
:103AD00000000000000000000000000000000000E6
:103AE00000000000000000000000000000000000D6
:103AF00000000000000000000000000000000000C6
:103B000000000000000000000000000000000000B5
:103B100000000000000000000000000000000000A5
:103B20000000000000000000000000000000000095
:103B30000000000000000000000000000000000085
:103B40000000000000000000000000000000000075
:103B50000000000000000000000000000000000065
:103B60000000000000000000000000000000000055
:103B70000000000000000000000000000000000045
:103B80000000000000000004047E018047300F1098
:103B9000270047807F0000000000000000000000B8
:103BA0000000000000000000000000000000000015
:103BB0000000000000000000000000000000000005
:103BC00000000000000000000000000000000000F5
:103BD00000000000000000000000000000000000E5
:103BE00000000000000000000000000000000000D5
:103BF00000000000000000000000000000000000C5
:103C000000000000000000000000000000000000B4
:103C100000000000000000000000000000000000A4
:103C20000000000000000000000000000000000094
:103C30000000000000000000000000000000000084
:103C40000000000000000000000000000000000074
:103C50000000000000000000000000000000000064
:103C60000000000000000000000000000000000054
:103C70000000000000000000000000000000000044
:103C8000000000000000000022322AA6A2622111DA
:103C90000981010000000000000000000000000099
:103CA0000000000000000000000000000000000014
:103CB0000000000000000000000000000000000004
:103CC00000000000000000000000000000000000F4
:103CD00000000000000000000000000000000000E4
:103CE00000000000000000000000000000000000D4
:103CF00000000000000000000000000000000000C4
:103D000000000000000000000000000000000000B3
:103D100000000000000000000000000000000000A3
:103D20000000000000000000000000000000000093
:103D30000000000000000000000000000000000083
:103D40000000000000000000000000000000000073
:103D50000000000000000000000000000000000063
:103D60000000000000000000000000000000000053
:103D70000000000000000000000000000000000043
:103D80000000000000004222130B42827E02020A61
:103D900012234600000000000000000000000000A8
:103DA0000000000000000000000000000000000013
:103DB0000000000000000000000000000000000003
:103DC00000000000000000000000000000000000F3
:103DD00000000000000000000000000000000000E3
:103DE00000000000000000000000000000000000D3
:103DF00000000000000000000000000000000000C3
:103E000000000000000000000000000000000000B2
:103E100000000000000000000000000000000000A2
:103E20000000000000000000000000000000000092
:103E30000000000000000000000000000000000082
:103E40000000000000000000000000000000000072
:103E50000000000000000000000000000000000062
:103E60000000000000000000000000000000000052
:103E70000000000000000000000000000000000042
:103E8000000000002030AC63300088C8A8998E88FC
:103E9000A8C888000000000000000000000000002A
:103EA0000000000000000000000000000000000012
:103EB0000000000000000000000000000000000002
:103EC00000000000000000000000000000000000F2
:103ED00000000000000000000000000000000000E2
:103EE00000000000000000000000000000000000D2
:103EF00000000000000000000000000000000000C2
:103F000000000000000000000000000000000000B1
:103F100000000000000000000000000000000000A1
:103F20000000000000000000000000000000000091
:103F30000000000000000000000000000000000081
:103F40000000000000000000000000000000000071
:103F50000000000000000000000000000000000061
:103F60000000000000000000000000000000000051
:103F70000000000000000000000000000000000041
:103F800000000022672212128040300F00003F40E4
:103F90004071000000000000000000000000000070
:103FA0000000000000000000000000000000000011
:103FB0000000000000000000000000000000000001
:103FC00000000000000000000000000000000000F1
:103FD00000000000000000000000000000000000E1
:103FE00000000000000000000000000000000000D1
:103FF00000000000000000000000000000000000C1
:1040000000000000000000000000000000000000B0
:1040100000000000000000000000000000000000A0
:104020000000000000000000000000000000000090
:104030000000000000000000000000000000000080
:104040000000000000000000000000000000000070
:104050000000000000000000000000000000000060
:104060000000000000000000000000000000000050
:104070000000000000000000000000000000000040
:104080000000004042445840407F40405048C60035
:104090000000000000000000000000000000000020
:1040A0000000000000000000000000000000000010
:1040B0000000000000000000000000000000000000
:1040C00000000000000000000000000000000000F0
:1040D00000000000000000000000000000000000E0
:1040E00000000000000000000000000000000000D0
:1040F00000000000000000000000000000000000C0
:1041000000000000000000000000000000000000AF
:10411000000000000000000000000000000000009F
:10412000000000000000000000000000000000008F
:10413000000000000000000000000000000000007F
:10414000000000000000000000000000000000006F
:10415000000000000000000000000000000000005F
:10416000000000000000000000000000000000004F
:10417000000000000000000000000000000000003F
:1041800000004044444444444444444444FF000048
:10419000000000000000000000000000000000001F
:1041A000000000000000000000000000000000000F
:1041B00000000000000000000000000000000000FF
:1041C00000000000000000000000000000000000EF
:1041D00000000000000000000000000000000000DF
:1041E00000000000000000000000000000000000CF
:1041F00000000000000000000000000000000000BF
:1042000000000000000000000000000000000000AE
:10421000000000000000000000000000000000009E
:10422000000000000000000000000000000000008E
:10423000000000000000000000000000000000007E
:10424000000000000000000000000000000000006E
:10425000000000000000000000000000000000005E
:10426000000000000000000000000000000000004E
:10427000000000000000000000000000000000003E
:104280000808E8292E28E80808C80C0BE8080800E8
:10429000000000000000000000000000000000001E
:1042A000000000000000000000000000000000000E
:1042B00000000000000000000000000000000000FE
:1042C00000000000000000000000000000000000EE
:1042D00000000000000000000000000000000000DE
:1042E00000000000000000000000000000000000CE
:1042F00000000000000000000000000000000000BE
:1043000000000000000000000000000000000000AD
:10431000000000000000000000000000000000009D
:10432000000000000000000000000000000000008D
:10433000000000000000000000000000000000007D
:10434000000000000000000000000000000000006D
:10435000000000000000000000000000000000005D
:10436000000000000000000000000000000000004D
:10437000000000000000000000000000000000003D
:1043800000FF0949897F00000F40807F0000000086
:10439000000000000000000000000000000000001D
:1043A000000000000000000000000000000000000D
:1043B00000000000000000000000000000000000FD
:1043C00000000000000000000000000000000000ED
:1043D00000000000000000000000000000000000DD
:1043E00000000000000000000000000000000000CD
:1043F00000000000000000000000000000000000BD
:1044000000000000000000000000000000000000AC
:10441000000000000000000000000000000000009C
:10442000000000000000000000000000000000008C
:10443000000000000000000000000000000000007C
:10444000000000000000000000000000000000006C
:10445000000000000000000000000000000000005C
:10446000000000000000000000000000000000004C
:104470000000000000000000000000000000020337
:104480000405060708090A0B0C0D0E0F101000009A
:10449000B04400080000002030000000182C000884
:1044A000E044000830000020E8040000282C000848
:1044B000000000000100000010000000AE001040ED
:1044C000B081FFA1A6A83FC8D300D580D805D9F1F7
:1044D000DA12D8308D14AF000024F4000000000080
:04000005080000ED02
:00000001FF
